{
  "_format": "hh-sol-artifact-1",
  "contractName": "DecentralizedDatabase",
  "sourceName": "contracts/DecentralizedDatabase.sol",
  "abi": [
    {
      "inputs": [],
      "stateMutability": "nonpayable",
      "type": "constructor"
    },
    {
      "inputs": [
        {
          "internalType": "uint256",
          "name": "id",
          "type": "uint256"
        },
        {
          "internalType": "string",
          "name": "value",
          "type": "string"
        }
      ],
      "name": "createData",
      "outputs": [],
      "stateMutability": "nonpayable",
      "type": "function"
    },
    {
      "inputs": [
        {
          "internalType": "uint256",
          "name": "",
          "type": "uint256"
        }
      ],
      "name": "data",
      "outputs": [
        {
          "internalType": "uint256",
          "name": "id",
          "type": "uint256"
        },
        {
          "internalType": "string",
          "name": "value",
          "type": "string"
        }
      ],
      "stateMutability": "view",
      "type": "function"
    },
    {
      "inputs": [
        {
          "internalType": "uint256",
          "name": "id",
          "type": "uint256"
        }
      ],
      "name": "deleteData",
      "outputs": [],
      "stateMutability": "nonpayable",
      "type": "function"
    },
    {
      "inputs": [
        {
          "internalType": "address",
          "name": "user",
          "type": "address"
        },
        {
          "internalType": "string",
          "name": "operation",
          "type": "string"
        }
      ],
      "name": "grantPermission",
      "outputs": [],
      "stateMutability": "nonpayable",
      "type": "function"
    },
    {
      "inputs": [
        {
          "internalType": "uint256",
          "name": "",
          "type": "uint256"
        }
      ],
      "name": "idToIndex",
      "outputs": [
        {
          "internalType": "uint256",
          "name": "",
          "type": "uint256"
        }
      ],
      "stateMutability": "view",
      "type": "function"
    },
    {
      "inputs": [],
      "name": "owner",
      "outputs": [
        {
          "internalType": "address",
          "name": "",
          "type": "address"
        }
      ],
      "stateMutability": "view",
      "type": "function"
    },
    {
      "inputs": [
        {
          "internalType": "address",
          "name": "",
          "type": "address"
        },
        {
          "internalType": "string",
          "name": "",
          "type": "string"
        }
      ],
      "name": "permissions",
      "outputs": [
        {
          "internalType": "bool",
          "name": "",
          "type": "bool"
        }
      ],
      "stateMutability": "view",
      "type": "function"
    },
    {
      "inputs": [
        {
          "internalType": "uint256",
          "name": "id",
          "type": "uint256"
        }
      ],
      "name": "readData",
      "outputs": [
        {
          "internalType": "string",
          "name": "",
          "type": "string"
        }
      ],
      "stateMutability": "view",
      "type": "function"
    },
    {
      "inputs": [
        {
          "internalType": "address",
          "name": "user",
          "type": "address"
        },
        {
          "internalType": "string",
          "name": "operation",
          "type": "string"
        }
      ],
      "name": "revokePermission",
      "outputs": [],
      "stateMutability": "nonpayable",
      "type": "function"
    },
    {
      "inputs": [
        {
          "internalType": "uint256",
          "name": "id",
          "type": "uint256"
        },
        {
          "internalType": "string",
          "name": "newValue",
          "type": "string"
        }
      ],
      "name": "updateData",
      "outputs": [],
      "stateMutability": "nonpayable",
      "type": "function"
    }
  ],
  "bytecode": "0x608060405234801561001057600080fd5b50336000806101000a81548173ffffffffffffffffffffffffffffffffffffffff021916908373ffffffffffffffffffffffffffffffffffffffff16021790555061162f806100606000396000f3fe608060405234801561001057600080fd5b506004361061009e5760003560e01c806389a8e2a71161006657806389a8e2a7146101575780638da5cb5b14610173578063bbd9a5fa14610191578063c8d757fd146101ad578063f0ba8440146101dd5761009e565b80630d01e92c146100a357806337ebbc03146100bf5780633df6db72146100ef5780634fe8b4c11461011f5780636ff891591461013b575b600080fd5b6100bd60048036038101906100b89190611090565b61020e565b005b6100d960048036038101906100d49190611067565b610423565b6040516100e691906112c8565b60405180910390f35b61010960048036038101906101049190611067565b610569565b604051610116919061136a565b60405180910390f35b61013960048036038101906101349190611067565b610581565b005b61015560048036038101906101509190611013565b6108df565b005b610171600480360381019061016c9190611090565b6109e5565b005b61017b610be7565b6040516101889190611292565b60405180910390f35b6101ab60048036038101906101a69190611013565b610c0b565b005b6101c760048036038101906101c29190611013565b610d10565b6040516101d491906112ad565b60405180910390f35b6101f760048036038101906101f29190611067565b610d55565b604051610205929190611385565b60405180910390f35b6040518060400160405280600681526020017f637265617465000000000000000000000000000000000000000000000000000081525060008054906101000a900473ffffffffffffffffffffffffffffffffffffffff1673ffffffffffffffffffffffffffffffffffffffff163373ffffffffffffffffffffffffffffffffffffffff1614806103035750600160003373ffffffffffffffffffffffffffffffffffffffff1673ffffffffffffffffffffffffffffffffffffffff168152602001908152602001600020816040516102e6919061127b565b908152602001604051809103902060009054906101000a900460ff165b610342576040517f08c379a00000000000000000000000000000000000000000000000000000000081526004016103399061132a565b60405180910390fd5b6000600360008581526020019081526020016000205414610398576040517f08c379a000000000000000000000000000000000000000000000000000000000815260040161038f906112ea565b60405180910390fd5b600260405180604001604052808581526020018481525090806001815401808255809150506001900390600052602060002090600202016000909190919091506000820151816000015560208201518160010190805190602001906103fe929190610e11565b5050506002805490506003600085815260200190815260200160002081905550505050565b60606000600360008481526020019081526020016000205490506000811415610481576040517f08c379a00000000000000000000000000000000000000000000000000000000081526004016104789061130a565b60405180910390fd5b6002600182610490919061143d565b815481106104c7577f4e487b7100000000000000000000000000000000000000000000000000000000600052603260045260246000fd5b906000526020600020906002020160010180546104e3906114fb565b80601f016020809104026020016040519081016040528092919081815260200182805461050f906114fb565b801561055c5780601f106105315761010080835404028352916020019161055c565b820191906000526020600020905b81548152906001019060200180831161053f57829003601f168201915b5050505050915050919050565b60036020528060005260406000206000915090505481565b6040518060400160405280600681526020017f64656c657465000000000000000000000000000000000000000000000000000081525060008054906101000a900473ffffffffffffffffffffffffffffffffffffffff1673ffffffffffffffffffffffffffffffffffffffff163373ffffffffffffffffffffffffffffffffffffffff1614806106765750600160003373ffffffffffffffffffffffffffffffffffffffff1673ffffffffffffffffffffffffffffffffffffffff16815260200190815260200160002081604051610659919061127b565b908152602001604051809103902060009054906101000a900460ff165b6106b5576040517f08c379a00000000000000000000000000000000000000000000000000000000081526004016106ac9061132a565b60405180910390fd5b6000600360008481526020019081526020016000205490506000811415610711576040517f08c379a00000000000000000000000000000000000000000000000000000000081526004016107089061130a565b60405180910390fd5b60026001600280549050610725919061143d565b8154811061075c577f4e487b7100000000000000000000000000000000000000000000000000000000600052603260045260246000fd5b90600052602060002090600202016002600183610779919061143d565b815481106107b0577f4e487b7100000000000000000000000000000000000000000000000000000000600052603260045260246000fd5b90600052602060002090600202016000820154816000015560018201816001019080546107dc906114fb565b6107e7929190610e97565b50905050806003600060026001856107ff919061143d565b81548110610836577f4e487b7100000000000000000000000000000000000000000000000000000000600052603260045260246000fd5b9060005260206000209060020201600001548152602001908152602001600020819055506002805480610892577f4e487b7100000000000000000000000000000000000000000000000000000000600052603160045260246000fd5b60019003818190600052602060002090600202016000808201600090556001820160006108bf9190610f24565b505090556003600084815260200190815260200160002060009055505050565b60008054906101000a900473ffffffffffffffffffffffffffffffffffffffff1673ffffffffffffffffffffffffffffffffffffffff163373ffffffffffffffffffffffffffffffffffffffff161461096d576040517f08c379a00000000000000000000000000000000000000000000000000000000081526004016109649061134a565b60405180910390fd5b6000600160008473ffffffffffffffffffffffffffffffffffffffff1673ffffffffffffffffffffffffffffffffffffffff168152602001908152602001600020826040516109bc919061127b565b908152602001604051809103902060006101000a81548160ff0219169083151502179055505050565b6040518060400160405280600681526020017f757064617465000000000000000000000000000000000000000000000000000081525060008054906101000a900473ffffffffffffffffffffffffffffffffffffffff1673ffffffffffffffffffffffffffffffffffffffff163373ffffffffffffffffffffffffffffffffffffffff161480610ada5750600160003373ffffffffffffffffffffffffffffffffffffffff1673ffffffffffffffffffffffffffffffffffffffff16815260200190815260200160002081604051610abd919061127b565b908152602001604051809103902060009054906101000a900460ff165b610b19576040517f08c379a0000000000000000000000000000000000000000000000000000000008152600401610b109061132a565b60405180910390fd5b6000600360008581526020019081526020016000205490506000811415610b75576040517f08c379a0000000000000000000000000000000000000000000000000000000008152600401610b6c9061130a565b60405180910390fd5b826002600183610b85919061143d565b81548110610bbc577f4e487b7100000000000000000000000000000000000000000000000000000000600052603260045260246000fd5b90600052602060002090600202016001019080519060200190610be0929190610e11565b5050505050565b60008054906101000a900473ffffffffffffffffffffffffffffffffffffffff1681565b60008054906101000a900473ffffffffffffffffffffffffffffffffffffffff1673ffffffffffffffffffffffffffffffffffffffff163373ffffffffffffffffffffffffffffffffffffffff1614610c99576040517f08c379a0000000000000000000000000000000000000000000000000000000008152600401610c909061134a565b60405180910390fd5b60018060008473ffffffffffffffffffffffffffffffffffffffff1673ffffffffffffffffffffffffffffffffffffffff16815260200190815260200160002082604051610ce7919061127b565b908152602001604051809103902060006101000a81548160ff0219169083151502179055505050565b6001602052816000526040600020818051602081018201805184825260208301602085012081835280955050505050506000915091509054906101000a900460ff1681565b60028181548110610d6557600080fd5b9060005260206000209060020201600091509050806000015490806001018054610d8e906114fb565b80601f0160208091040260200160405190810160405280929190818152602001828054610dba906114fb565b8015610e075780601f10610ddc57610100808354040283529160200191610e07565b820191906000526020600020905b815481529060010190602001808311610dea57829003601f168201915b5050505050905082565b828054610e1d906114fb565b90600052602060002090601f016020900481019282610e3f5760008555610e86565b82601f10610e5857805160ff1916838001178555610e86565b82800160010185558215610e86579182015b82811115610e85578251825591602001919060010190610e6a565b5b509050610e939190610f64565b5090565b828054610ea3906114fb565b90600052602060002090601f016020900481019282610ec55760008555610f13565b82601f10610ed65780548555610f13565b82800160010185558215610f1357600052602060002091601f016020900482015b82811115610f12578254825591600101919060010190610ef7565b5b509050610f209190610f64565b5090565b508054610f30906114fb565b6000825580601f10610f425750610f61565b601f016020900490600052602060002090810190610f609190610f64565b5b50565b5b80821115610f7d576000816000905550600101610f65565b5090565b6000610f94610f8f846113e6565b6113b5565b905082815260208101848484011115610fac57600080fd5b610fb78482856114b9565b509392505050565b600081359050610fce816115cb565b92915050565b600082601f830112610fe557600080fd5b8135610ff5848260208601610f81565b91505092915050565b60008135905061100d816115e2565b92915050565b6000806040838503121561102657600080fd5b600061103485828601610fbf565b925050602083013567ffffffffffffffff81111561105157600080fd5b61105d85828601610fd4565b9150509250929050565b60006020828403121561107957600080fd5b600061108784828501610ffe565b91505092915050565b600080604083850312156110a357600080fd5b60006110b185828601610ffe565b925050602083013567ffffffffffffffff8111156110ce57600080fd5b6110da85828601610fd4565b9150509250929050565b6110ed81611471565b82525050565b6110fc81611483565b82525050565b600061110d82611416565b6111178185611421565b93506111278185602086016114c8565b611130816115ba565b840191505092915050565b600061114682611416565b6111508185611432565b93506111608185602086016114c8565b80840191505092915050565b6000611179602083611421565b91507f446174612077697468207468697320696420616c7265616479206578697374736000830152602082019050919050565b60006111b9601383611421565b91507f4461746120646f6573206e6f74206578697374000000000000000000000000006000830152602082019050919050565b60006111f9600d83611421565b91507f4e6f207065726d697373696f6e000000000000000000000000000000000000006000830152602082019050919050565b6000611239601683611421565b91507f4e6f742074686520636f6e7472616374206f776e6572000000000000000000006000830152602082019050919050565b611275816114af565b82525050565b6000611287828461113b565b915081905092915050565b60006020820190506112a760008301846110e4565b92915050565b60006020820190506112c260008301846110f3565b92915050565b600060208201905081810360008301526112e28184611102565b905092915050565b600060208201905081810360008301526113038161116c565b9050919050565b60006020820190508181036000830152611323816111ac565b9050919050565b60006020820190508181036000830152611343816111ec565b9050919050565b600060208201905081810360008301526113638161122c565b9050919050565b600060208201905061137f600083018461126c565b92915050565b600060408201905061139a600083018561126c565b81810360208301526113ac8184611102565b90509392505050565b6000604051905081810181811067ffffffffffffffff821117156113dc576113db61158b565b5b8060405250919050565b600067ffffffffffffffff8211156114015761140061158b565b5b601f19601f8301169050602081019050919050565b600081519050919050565b600082825260208201905092915050565b600081905092915050565b6000611448826114af565b9150611453836114af565b9250828210156114665761146561152d565b5b828203905092915050565b600061147c8261148f565b9050919050565b60008115159050919050565b600073ffffffffffffffffffffffffffffffffffffffff82169050919050565b6000819050919050565b82818337600083830152505050565b60005b838110156114e65780820151818401526020810190506114cb565b838111156114f5576000848401525b50505050565b6000600282049050600182168061151357607f821691505b602082108114156115275761152661155c565b5b50919050565b7f4e487b7100000000000000000000000000000000000000000000000000000000600052601160045260246000fd5b7f4e487b7100000000000000000000000000000000000000000000000000000000600052602260045260246000fd5b7f4e487b7100000000000000000000000000000000000000000000000000000000600052604160045260246000fd5b6000601f19601f8301169050919050565b6115d481611471565b81146115df57600080fd5b50565b6115eb816114af565b81146115f657600080fd5b5056fea2646970667358221220603a8e4c73a8885b1572637f19c177168310cb8b0c05f4fdb755ca106817c68964736f6c63430008000033",
  "linkReferences": {},
  "deployedLinkReferences": {}
}