{
  "_format": "hh-sol-artifact-1",
  "contractName": "DecentralizedDatabase",
  "sourceName": "contracts/DecentralizedDatabase.sol",
  "abi": [
    {
      "inputs": [],
      "stateMutability": "nonpayable",
      "type": "constructor"
    },
    {
      "anonymous": false,
      "inputs": [
        {
          "indexed": false,
          "internalType": "string",
          "name": "key",
          "type": "string"
        },
        {
          "indexed": false,
          "internalType": "string",
          "name": "value",
          "type": "string"
        }
      ],
      "name": "DataCreated",
      "type": "event"
    },
    {
      "anonymous": false,
      "inputs": [
        {
          "indexed": false,
          "internalType": "string",
          "name": "key",
          "type": "string"
        }
      ],
      "name": "DataDeleted",
      "type": "event"
    },
    {
      "anonymous": false,
      "inputs": [
        {
          "indexed": false,
          "internalType": "string",
          "name": "key",
          "type": "string"
        },
        {
          "indexed": false,
          "internalType": "string",
          "name": "value",
          "type": "string"
        }
      ],
      "name": "DataUpdated",
      "type": "event"
    },
    {
      "anonymous": false,
      "inputs": [
        {
          "indexed": true,
          "internalType": "address",
          "name": "account",
          "type": "address"
        }
      ],
      "name": "DeleterAdded",
      "type": "event"
    },
    {
      "anonymous": false,
      "inputs": [
        {
          "indexed": true,
          "internalType": "address",
          "name": "account",
          "type": "address"
        }
      ],
      "name": "DeleterRemoved",
      "type": "event"
    },
    {
      "anonymous": false,
      "inputs": [
        {
          "indexed": true,
          "internalType": "address",
          "name": "account",
          "type": "address"
        }
      ],
      "name": "WriterAdded",
      "type": "event"
    },
    {
      "anonymous": false,
      "inputs": [
        {
          "indexed": true,
          "internalType": "address",
          "name": "account",
          "type": "address"
        }
      ],
      "name": "WriterRemoved",
      "type": "event"
    },
    {
      "inputs": [
        {
          "internalType": "address",
          "name": "account",
          "type": "address"
        }
      ],
      "name": "addDeleter",
      "outputs": [],
      "stateMutability": "nonpayable",
      "type": "function"
    },
    {
      "inputs": [
        {
          "internalType": "address",
          "name": "account",
          "type": "address"
        }
      ],
      "name": "addWriter",
      "outputs": [],
      "stateMutability": "nonpayable",
      "type": "function"
    },
    {
      "inputs": [
        {
          "internalType": "string",
          "name": "key",
          "type": "string"
        }
      ],
      "name": "deleteData",
      "outputs": [],
      "stateMutability": "nonpayable",
      "type": "function"
    },
    {
      "inputs": [
        {
          "internalType": "string",
          "name": "key",
          "type": "string"
        }
      ],
      "name": "getData",
      "outputs": [
        {
          "internalType": "string",
          "name": "",
          "type": "string"
        }
      ],
      "stateMutability": "view",
      "type": "function"
    },
    {
      "inputs": [
        {
          "internalType": "string",
          "name": "key",
          "type": "string"
        }
      ],
      "name": "keyExists",
      "outputs": [
        {
          "internalType": "bool",
          "name": "",
          "type": "bool"
        }
      ],
      "stateMutability": "view",
      "type": "function"
    },
    {
      "inputs": [],
      "name": "owner",
      "outputs": [
        {
          "internalType": "address",
          "name": "",
          "type": "address"
        }
      ],
      "stateMutability": "view",
      "type": "function"
    },
    {
      "inputs": [
        {
          "internalType": "address",
          "name": "account",
          "type": "address"
        }
      ],
      "name": "removeDeleter",
      "outputs": [],
      "stateMutability": "nonpayable",
      "type": "function"
    },
    {
      "inputs": [
        {
          "internalType": "address",
          "name": "account",
          "type": "address"
        }
      ],
      "name": "removeWriter",
      "outputs": [],
      "stateMutability": "nonpayable",
      "type": "function"
    },
    {
      "inputs": [
        {
          "internalType": "string",
          "name": "key",
          "type": "string"
        },
        {
          "internalType": "string",
          "name": "value",
          "type": "string"
        }
      ],
      "name": "setData",
      "outputs": [],
      "stateMutability": "nonpayable",
      "type": "function"
    }
  ],
  "bytecode": "0x608060405234801561001057600080fd5b50336000806101000a81548173ffffffffffffffffffffffffffffffffffffffff021916908373ffffffffffffffffffffffffffffffffffffffff1602179055506115fe806100606000396000f3fe608060405234801561001057600080fd5b50600436106100935760003560e01c80638f78dced116100665780638f78dced1461011e5780639295cd1f1461013a578063ae55c88814610156578063da2824a814610186578063f4e05e31146101a257610093565b80635356dddc1461009857806358537ca9146100b45780638ca3c553146100e45780638da5cb5b14610100575b600080fd5b6100b260048036038101906100ad9190610cca565b6101be565b005b6100ce60048036038101906100c99190610d5c565b6102ea565b6040516100db9190610dc4565b60405180910390f35b6100fe60048036038101906100f99190610ddf565b610323565b005b610108610581565b6040516101159190610e6f565b60405180910390f35b61013860048036038101906101339190610cca565b6105a5565b005b610154600480360381019061014f9190610d5c565b6106d1565b005b610170600480360381019061016b9190610d5c565b61088b565b60405161017d9190610f1a565b60405180910390f35b6101a0600480360381019061019b9190610cca565b6109ad565b005b6101bc60048036038101906101b79190610cca565b610ad9565b005b60008054906101000a900473ffffffffffffffffffffffffffffffffffffffff1673ffffffffffffffffffffffffffffffffffffffff163373ffffffffffffffffffffffffffffffffffffffff161461024c576040517f08c379a000000000000000000000000000000000000000000000000000000000815260040161024390610f88565b60405180910390fd5b6000600260008373ffffffffffffffffffffffffffffffffffffffff1673ffffffffffffffffffffffffffffffffffffffff16815260200190815260200160002060006101000a81548160ff0219169083151502179055508073ffffffffffffffffffffffffffffffffffffffff167f86e5bbceda94081c32220d685f37cc4e3ea7bb0be2dfbf0cb703579505a5390e60405160405180910390a250565b600080600184846040516102ff929190610fe7565b908152602001604051809103902080546103189061102f565b905011905092915050565b600260003373ffffffffffffffffffffffffffffffffffffffff1673ffffffffffffffffffffffffffffffffffffffff16815260200190815260200160002060009054906101000a900460ff16806103c6575060008054906101000a900473ffffffffffffffffffffffffffffffffffffffff1673ffffffffffffffffffffffffffffffffffffffff163373ffffffffffffffffffffffffffffffffffffffff16145b610405576040517f08c379a00000000000000000000000000000000000000000000000000000000081526004016103fc906110ac565b60405180910390fd5b6000848490501161044b576040517f08c379a000000000000000000000000000000000000000000000000000000000815260040161044290611118565b60405180910390fd5b60008282905011610491576040517f08c379a000000000000000000000000000000000000000000000000000000000815260040161048890611184565b60405180910390fd5b600080600186866040516104a6929190610fe7565b908152602001604051809103902080546104bf9061102f565b90501190508282600187876040516104d8929190610fe7565b908152602001604051809103902091826104f3929190611394565b50801561053c577fee986145c636aca5c6c0b4ce0e9d371e77ab30b3e28fe5c3a8d977f05fc8cf248585858560405161052f9493929190611491565b60405180910390a161057a565b7ff127b94f6040b3efddbd2216c34fd5c9c37a2a4a937043379ac267c0ef111d18858585856040516105719493929190611491565b60405180910390a15b5050505050565b60008054906101000a900473ffffffffffffffffffffffffffffffffffffffff1681565b60008054906101000a900473ffffffffffffffffffffffffffffffffffffffff1673ffffffffffffffffffffffffffffffffffffffff163373ffffffffffffffffffffffffffffffffffffffff1614610633576040517f08c379a000000000000000000000000000000000000000000000000000000000815260040161062a90610f88565b60405180910390fd5b6000600360008373ffffffffffffffffffffffffffffffffffffffff1673ffffffffffffffffffffffffffffffffffffffff16815260200190815260200160002060006101000a81548160ff0219169083151502179055508073ffffffffffffffffffffffffffffffffffffffff167f6622b9a7f3cd5957c03d677cb84fa2f83fb3a8bca4e2426a04abc3ddce78a3a360405160405180910390a250565b600360003373ffffffffffffffffffffffffffffffffffffffff1673ffffffffffffffffffffffffffffffffffffffff16815260200190815260200160002060009054906101000a900460ff1680610774575060008054906101000a900473ffffffffffffffffffffffffffffffffffffffff1673ffffffffffffffffffffffffffffffffffffffff163373ffffffffffffffffffffffffffffffffffffffff16145b6107b3576040517f08c379a00000000000000000000000000000000000000000000000000000000081526004016107aa90611518565b60405180910390fd5b6000600183836040516107c7929190610fe7565b908152602001604051809103902080546107e09061102f565b905011610822576040517f08c379a000000000000000000000000000000000000000000000000000000000815260040161081990611584565b60405180910390fd5b60018282604051610834929190610fe7565b9081526020016040518091039020600061084e9190610c05565b7fae97ca8947be12d51a371b5c4dffade7fa9f8e726cd523898974d69c8c508171828260405161087f9291906115a4565b60405180910390a15050565b60606000600184846040516108a1929190610fe7565b908152602001604051809103902080546108ba9061102f565b9050116108fc576040517f08c379a00000000000000000000000000000000000000000000000000000000081526004016108f390611584565b60405180910390fd5b6001838360405161090e929190610fe7565b908152602001604051809103902080546109279061102f565b80601f01602080910402602001604051908101604052809291908181526020018280546109539061102f565b80156109a05780601f10610975576101008083540402835291602001916109a0565b820191906000526020600020905b81548152906001019060200180831161098357829003601f168201915b5050505050905092915050565b60008054906101000a900473ffffffffffffffffffffffffffffffffffffffff1673ffffffffffffffffffffffffffffffffffffffff163373ffffffffffffffffffffffffffffffffffffffff1614610a3b576040517f08c379a0000000000000000000000000000000000000000000000000000000008152600401610a3290610f88565b60405180910390fd5b6001600260008373ffffffffffffffffffffffffffffffffffffffff1673ffffffffffffffffffffffffffffffffffffffff16815260200190815260200160002060006101000a81548160ff0219169083151502179055508073ffffffffffffffffffffffffffffffffffffffff167f6ff3aa2ea7b53070f6d9d07a445d338d89e8edef44250ffa8be19f53910d4a2e60405160405180910390a250565b60008054906101000a900473ffffffffffffffffffffffffffffffffffffffff1673ffffffffffffffffffffffffffffffffffffffff163373ffffffffffffffffffffffffffffffffffffffff1614610b67576040517f08c379a0000000000000000000000000000000000000000000000000000000008152600401610b5e90610f88565b60405180910390fd5b6001600360008373ffffffffffffffffffffffffffffffffffffffff1673ffffffffffffffffffffffffffffffffffffffff16815260200190815260200160002060006101000a81548160ff0219169083151502179055508073ffffffffffffffffffffffffffffffffffffffff167f844cb88b864755b3b9c5d4fcdd047867b482191cc332a424dfdedd56f19f292e60405160405180910390a250565b508054610c119061102f565b6000825580601f10610c235750610c42565b601f016020900490600052602060002090810190610c419190610c45565b5b50565b5b80821115610c5e576000816000905550600101610c46565b5090565b600080fd5b600080fd5b600073ffffffffffffffffffffffffffffffffffffffff82169050919050565b6000610c9782610c6c565b9050919050565b610ca781610c8c565b8114610cb257600080fd5b50565b600081359050610cc481610c9e565b92915050565b600060208284031215610ce057610cdf610c62565b5b6000610cee84828501610cb5565b91505092915050565b600080fd5b600080fd5b600080fd5b60008083601f840112610d1c57610d1b610cf7565b5b8235905067ffffffffffffffff811115610d3957610d38610cfc565b5b602083019150836001820283011115610d5557610d54610d01565b5b9250929050565b60008060208385031215610d7357610d72610c62565b5b600083013567ffffffffffffffff811115610d9157610d90610c67565b5b610d9d85828601610d06565b92509250509250929050565b60008115159050919050565b610dbe81610da9565b82525050565b6000602082019050610dd96000830184610db5565b92915050565b60008060008060408587031215610df957610df8610c62565b5b600085013567ffffffffffffffff811115610e1757610e16610c67565b5b610e2387828801610d06565b9450945050602085013567ffffffffffffffff811115610e4657610e45610c67565b5b610e5287828801610d06565b925092505092959194509250565b610e6981610c8c565b82525050565b6000602082019050610e846000830184610e60565b92915050565b600081519050919050565b600082825260208201905092915050565b60005b83811015610ec4578082015181840152602081019050610ea9565b60008484015250505050565b6000601f19601f8301169050919050565b6000610eec82610e8a565b610ef68185610e95565b9350610f06818560208601610ea6565b610f0f81610ed0565b840191505092915050565b60006020820190508181036000830152610f348184610ee1565b905092915050565b7f4e6f742074686520636f6e7472616374206f776e657200000000000000000000600082015250565b6000610f72601683610e95565b9150610f7d82610f3c565b602082019050919050565b60006020820190508181036000830152610fa181610f65565b9050919050565b600081905092915050565b82818337600083830152505050565b6000610fce8385610fa8565b9350610fdb838584610fb3565b82840190509392505050565b6000610ff4828486610fc2565b91508190509392505050565b7f4e487b7100000000000000000000000000000000000000000000000000000000600052602260045260246000fd5b6000600282049050600182168061104757607f821691505b60208210810361105a57611059611000565b5b50919050565b7f4e6f7420617574686f72697a656420746f207772697465206461746100000000600082015250565b6000611096601c83610e95565b91506110a182611060565b602082019050919050565b600060208201905081810360008301526110c581611089565b9050919050565b7f4b65792063616e6e6f7420626520656d70747900000000000000000000000000600082015250565b6000611102601383610e95565b915061110d826110cc565b602082019050919050565b60006020820190508181036000830152611131816110f5565b9050919050565b7f56616c75652063616e6e6f7420626520656d7074790000000000000000000000600082015250565b600061116e601583610e95565b915061117982611138565b602082019050919050565b6000602082019050818103600083015261119d81611161565b9050919050565b600082905092915050565b7f4e487b7100000000000000000000000000000000000000000000000000000000600052604160045260246000fd5b60008190508160005260206000209050919050565b60006020601f8301049050919050565b600082821b905092915050565b6000600883026112407fffffffffffffffffffffffffffffffffffffffffffffffffffffffffffffffff82611203565b61124a8683611203565b95508019841693508086168417925050509392505050565b6000819050919050565b6000819050919050565b600061129161128c61128784611262565b61126c565b611262565b9050919050565b6000819050919050565b6112ab83611276565b6112bf6112b782611298565b848454611210565b825550505050565b600090565b6112d46112c7565b6112df8184846112a2565b505050565b5b81811015611303576112f86000826112cc565b6001810190506112e5565b5050565b601f82111561134857611319816111de565b611322846111f3565b81016020851015611331578190505b61134561133d856111f3565b8301826112e4565b50505b505050565b600082821c905092915050565b600061136b6000198460080261134d565b1980831691505092915050565b6000611384838361135a565b9150826002028217905092915050565b61139e83836111a4565b67ffffffffffffffff8111156113b7576113b66111af565b5b6113c1825461102f565b6113cc828285611307565b6000601f8311600181146113fb57600084156113e9578287013590505b6113f38582611378565b86555061145b565b601f198416611409866111de565b60005b828110156114315784890135825560018201915060208501945060208101905061140c565b8683101561144e578489013561144a601f89168261135a565b8355505b6001600288020188555050505b50505050505050565b60006114708385610e95565b935061147d838584610fb3565b61148683610ed0565b840190509392505050565b600060408201905081810360008301526114ac818688611464565b905081810360208301526114c1818486611464565b905095945050505050565b7f4e6f7420617574686f72697a656420746f2064656c6574652064617461000000600082015250565b6000611502601d83610e95565b915061150d826114cc565b602082019050919050565b60006020820190508181036000830152611531816114f5565b9050919050565b7f4b657920646f6573206e6f742065786973740000000000000000000000000000600082015250565b600061156e601283610e95565b915061157982611538565b602082019050919050565b6000602082019050818103600083015261159d81611561565b9050919050565b600060208201905081810360008301526115bf818486611464565b9050939250505056fea26469706673582212205d09e43dcc0fbb66a28c604d9fef0a6cb88ef5af560c49b992f299fee110320c64736f6c63430008180033",
  "linkReferences": {},
  "deployedLinkReferences": {}
}