{
  "_format": "hh-sol-artifact-1",
  "contractName": "CRUD_APP",
  "sourceName": "contracts/CRUD_APP.sol",
  "abi": [
    {
      "inputs": [],
      "stateMutability": "nonpayable",
      "type": "constructor"
    },
    {
      "anonymous": false,
      "inputs": [
        {
          "indexed": true,
          "internalType": "bytes32",
          "name": "key",
          "type": "bytes32"
        },
        {
          "indexed": false,
          "internalType": "string",
          "name": "content",
          "type": "string"
        }
      ],
      "name": "DataCreated",
      "type": "event"
    },
    {
      "anonymous": false,
      "inputs": [
        {
          "indexed": true,
          "internalType": "bytes32",
          "name": "key",
          "type": "bytes32"
        }
      ],
      "name": "DataDeleted",
      "type": "event"
    },
    {
      "anonymous": false,
      "inputs": [
        {
          "indexed": true,
          "internalType": "bytes32",
          "name": "key",
          "type": "bytes32"
        },
        {
          "indexed": false,
          "internalType": "string",
          "name": "content",
          "type": "string"
        }
      ],
      "name": "DataUpdated",
      "type": "event"
    },
    {
      "inputs": [
        {
          "internalType": "bytes32",
          "name": "key",
          "type": "bytes32"
        },
        {
          "internalType": "string",
          "name": "content",
          "type": "string"
        }
      ],
      "name": "create",
      "outputs": [],
      "stateMutability": "nonpayable",
      "type": "function"
    },
    {
      "inputs": [
        {
          "internalType": "address",
          "name": "user",
          "type": "address"
        }
      ],
      "name": "grantCreatePermission",
      "outputs": [],
      "stateMutability": "nonpayable",
      "type": "function"
    },
    {
      "inputs": [
        {
          "internalType": "address",
          "name": "user",
          "type": "address"
        }
      ],
      "name": "grantReadPermission",
      "outputs": [],
      "stateMutability": "nonpayable",
      "type": "function"
    },
    {
      "inputs": [
        {
          "internalType": "address",
          "name": "",
          "type": "address"
        }
      ],
      "name": "hasCreatePermission",
      "outputs": [
        {
          "internalType": "bool",
          "name": "",
          "type": "bool"
        }
      ],
      "stateMutability": "view",
      "type": "function"
    },
    {
      "inputs": [
        {
          "internalType": "address",
          "name": "",
          "type": "address"
        }
      ],
      "name": "hasReadPermission",
      "outputs": [
        {
          "internalType": "bool",
          "name": "",
          "type": "bool"
        }
      ],
      "stateMutability": "view",
      "type": "function"
    },
    {
      "inputs": [],
      "name": "owner",
      "outputs": [
        {
          "internalType": "address",
          "name": "",
          "type": "address"
        }
      ],
      "stateMutability": "view",
      "type": "function"
    },
    {
      "inputs": [
        {
          "internalType": "bytes32",
          "name": "key",
          "type": "bytes32"
        }
      ],
      "name": "read",
      "outputs": [
        {
          "internalType": "string",
          "name": "",
          "type": "string"
        }
      ],
      "stateMutability": "view",
      "type": "function"
    },
    {
      "inputs": [
        {
          "internalType": "bytes32",
          "name": "key",
          "type": "bytes32"
        }
      ],
      "name": "remove",
      "outputs": [],
      "stateMutability": "nonpayable",
      "type": "function"
    },
    {
      "inputs": [
        {
          "internalType": "address",
          "name": "user",
          "type": "address"
        }
      ],
      "name": "revokeCreatePermission",
      "outputs": [],
      "stateMutability": "nonpayable",
      "type": "function"
    },
    {
      "inputs": [
        {
          "internalType": "address",
          "name": "user",
          "type": "address"
        }
      ],
      "name": "revokeReadPermission",
      "outputs": [],
      "stateMutability": "nonpayable",
      "type": "function"
    },
    {
      "inputs": [
        {
          "internalType": "bytes32",
          "name": "key",
          "type": "bytes32"
        },
        {
          "internalType": "string",
          "name": "content",
          "type": "string"
        }
      ],
      "name": "update",
      "outputs": [],
      "stateMutability": "nonpayable",
      "type": "function"
    }
  ],
  "bytecode": "0x608060405234801561001057600080fd5b50336000806101000a81548173ffffffffffffffffffffffffffffffffffffffff021916908373ffffffffffffffffffffffffffffffffffffffff160217905550611390806100606000396000f3fe608060405234801561001057600080fd5b50600436106100a85760003560e01c8063b1ad16e911610071578063b1ad16e914610163578063b24af65d1461017f578063c47cb4b21461019b578063dd5b64de146101cb578063e8c9d7e7146101e7578063ec9c5f8b14610203576100a8565b806216a8c8146100ad5780634adbbb2f146100c957806361da1439146100f95780638da5cb5b1461012957806395bc267314610147575b600080fd5b6100c760048036038101906100c29190610e29565b61021f565b005b6100e360048036038101906100de9190610e29565b610308565b6040516100f091906110a7565b60405180910390f35b610113600480360381019061010e9190610e52565b610328565b60405161012091906110c2565b60405180910390f35b610131610515565b60405161013e919061108c565b60405180910390f35b610161600480360381019061015c9190610e52565b610539565b005b61017d60048036038101906101789190610e29565b610694565b005b61019960048036038101906101949190610e29565b61077d565b005b6101b560048036038101906101b09190610e29565b610866565b6040516101c291906110a7565b60405180910390f35b6101e560048036038101906101e09190610e7b565b610886565b005b61020160048036038101906101fc9190610e29565b6109de565b005b61021d60048036038101906102189190610e7b565b610ac7565b005b60008054906101000a900473ffffffffffffffffffffffffffffffffffffffff1673ffffffffffffffffffffffffffffffffffffffff163373ffffffffffffffffffffffffffffffffffffffff16146102ad576040517f08c379a00000000000000000000000000000000000000000000000000000000081526004016102a490611164565b60405180910390fd5b6000600260008373ffffffffffffffffffffffffffffffffffffffff1673ffffffffffffffffffffffffffffffffffffffff16815260200190815260200160002060006101000a81548160ff02191690831515021790555050565b60026020528060005260406000206000915054906101000a900460ff1681565b606060008054906101000a900473ffffffffffffffffffffffffffffffffffffffff1673ffffffffffffffffffffffffffffffffffffffff163373ffffffffffffffffffffffffffffffffffffffff1614806103cd5750600360003373ffffffffffffffffffffffffffffffffffffffff1673ffffffffffffffffffffffffffffffffffffffff16815260200190815260200160002060009054906101000a900460ff165b61040c576040517f08c379a000000000000000000000000000000000000000000000000000000000815260040161040390611124565b60405180910390fd5b6001600083815260200190815260200160002060010160009054906101000a900460ff1661046f576040517f08c379a000000000000000000000000000000000000000000000000000000000815260040161046690611104565b60405180910390fd5b6001600083815260200190815260200160002060000180546104909061128b565b80601f01602080910402602001604051908101604052809291908181526020018280546104bc9061128b565b80156105095780601f106104de57610100808354040283529160200191610509565b820191906000526020600020905b8154815290600101906020018083116104ec57829003601f168201915b50505050509050919050565b60008054906101000a900473ffffffffffffffffffffffffffffffffffffffff1681565b60008054906101000a900473ffffffffffffffffffffffffffffffffffffffff1673ffffffffffffffffffffffffffffffffffffffff163373ffffffffffffffffffffffffffffffffffffffff16146105c7576040517f08c379a00000000000000000000000000000000000000000000000000000000081526004016105be90611164565b60405180910390fd5b6001600082815260200190815260200160002060010160009054906101000a900460ff1661062a576040517f08c379a000000000000000000000000000000000000000000000000000000000815260040161062190611104565b60405180910390fd5b600160008281526020019081526020016000206000808201600061064e9190610cb4565b6001820160006101000a81549060ff02191690555050807f5236602858fa598e0b1c0f4eab28a46d135d76a3a28731d8dca95bc52c91bc3360405160405180910390a250565b60008054906101000a900473ffffffffffffffffffffffffffffffffffffffff1673ffffffffffffffffffffffffffffffffffffffff163373ffffffffffffffffffffffffffffffffffffffff1614610722576040517f08c379a000000000000000000000000000000000000000000000000000000000815260040161071990611164565b60405180910390fd5b6001600260008373ffffffffffffffffffffffffffffffffffffffff1673ffffffffffffffffffffffffffffffffffffffff16815260200190815260200160002060006101000a81548160ff02191690831515021790555050565b60008054906101000a900473ffffffffffffffffffffffffffffffffffffffff1673ffffffffffffffffffffffffffffffffffffffff163373ffffffffffffffffffffffffffffffffffffffff161461080b576040517f08c379a000000000000000000000000000000000000000000000000000000000815260040161080290611164565b60405180910390fd5b6001600360008373ffffffffffffffffffffffffffffffffffffffff1673ffffffffffffffffffffffffffffffffffffffff16815260200190815260200160002060006101000a81548160ff02191690831515021790555050565b60036020528060005260406000206000915054906101000a900460ff1681565b60008054906101000a900473ffffffffffffffffffffffffffffffffffffffff1673ffffffffffffffffffffffffffffffffffffffff163373ffffffffffffffffffffffffffffffffffffffff1614610914576040517f08c379a000000000000000000000000000000000000000000000000000000000815260040161090b90611164565b60405180910390fd5b6001600083815260200190815260200160002060010160009054906101000a900460ff16610977576040517f08c379a000000000000000000000000000000000000000000000000000000000815260040161096e90611104565b60405180910390fd5b806001600084815260200190815260200160002060000190805190602001906109a1929190610cf4565b50817f12f9d9ce5e1577cde337d32720563ae30a0fc8c24bfe12db04a281eead2b6cc5826040516109d291906110c2565b60405180910390a25050565b60008054906101000a900473ffffffffffffffffffffffffffffffffffffffff1673ffffffffffffffffffffffffffffffffffffffff163373ffffffffffffffffffffffffffffffffffffffff1614610a6c576040517f08c379a0000000000000000000000000000000000000000000000000000000008152600401610a6390611164565b60405180910390fd5b6000600360008373ffffffffffffffffffffffffffffffffffffffff1673ffffffffffffffffffffffffffffffffffffffff16815260200190815260200160002060006101000a81548160ff02191690831515021790555050565b60008054906101000a900473ffffffffffffffffffffffffffffffffffffffff1673ffffffffffffffffffffffffffffffffffffffff163373ffffffffffffffffffffffffffffffffffffffff161480610b6a5750600260003373ffffffffffffffffffffffffffffffffffffffff1673ffffffffffffffffffffffffffffffffffffffff16815260200190815260200160002060009054906101000a900460ff165b610ba9576040517f08c379a0000000000000000000000000000000000000000000000000000000008152600401610ba090611144565b60405180910390fd5b6001600083815260200190815260200160002060010160009054906101000a900460ff1615610c0d576040517f08c379a0000000000000000000000000000000000000000000000000000000008152600401610c04906110e4565b60405180910390fd5b604051806040016040528082815260200160011515815250600160008481526020019081526020016000206000820151816000019080519060200190610c54929190610cf4565b5060208201518160010160006101000a81548160ff021916908315150217905550905050817f28284a77cf8dcad99fee68bd9aa1995f55f804100c86c0c8ba45ed260749359c82604051610ca891906110c2565b60405180910390a25050565b508054610cc09061128b565b6000825580601f10610cd25750610cf1565b601f016020900490600052602060002090810190610cf09190610d7a565b5b50565b828054610d009061128b565b90600052602060002090601f016020900481019282610d225760008555610d69565b82601f10610d3b57805160ff1916838001178555610d69565b82800160010185558215610d69579182015b82811115610d68578251825591602001919060010190610d4d565b5b509050610d769190610d7a565b5090565b5b80821115610d93576000816000905550600101610d7b565b5090565b6000610daa610da5846111b5565b611184565b905082815260208101848484011115610dc257600080fd5b610dcd848285611249565b509392505050565b600081359050610de48161132c565b92915050565b600081359050610df981611343565b92915050565b600082601f830112610e1057600080fd5b8135610e20848260208601610d97565b91505092915050565b600060208284031215610e3b57600080fd5b6000610e4984828501610dd5565b91505092915050565b600060208284031215610e6457600080fd5b6000610e7284828501610dea565b91505092915050565b60008060408385031215610e8e57600080fd5b6000610e9c85828601610dea565b925050602083013567ffffffffffffffff811115610eb957600080fd5b610ec585828601610dff565b9150509250929050565b610ed881611201565b82525050565b610ee781611213565b82525050565b6000610ef8826111e5565b610f0281856111f0565b9350610f12818560208601611258565b610f1b8161131b565b840191505092915050565b6000610f336012836111f0565b91507f4b657920616c72656164792065786973747300000000000000000000000000006000830152602082019050919050565b6000610f736012836111f0565b91507f4b657920646f6573206e6f7420657869737400000000000000000000000000006000830152602082019050919050565b6000610fb36012836111f0565b91507f4e6f2072656164207065726d697373696f6e00000000000000000000000000006000830152602082019050919050565b6000610ff36014836111f0565b91507f4e6f20637265617465207065726d697373696f6e0000000000000000000000006000830152602082019050919050565b60006110336022836111f0565b91507f4f6e6c79206f776e65722063616e20706572666f726d2074686973206163746960008301527f6f6e0000000000000000000000000000000000000000000000000000000000006020830152604082019050919050565b60006020820190506110a16000830184610ecf565b92915050565b60006020820190506110bc6000830184610ede565b92915050565b600060208201905081810360008301526110dc8184610eed565b905092915050565b600060208201905081810360008301526110fd81610f26565b9050919050565b6000602082019050818103600083015261111d81610f66565b9050919050565b6000602082019050818103600083015261113d81610fa6565b9050919050565b6000602082019050818103600083015261115d81610fe6565b9050919050565b6000602082019050818103600083015261117d81611026565b9050919050565b6000604051905081810181811067ffffffffffffffff821117156111ab576111aa6112ec565b5b8060405250919050565b600067ffffffffffffffff8211156111d0576111cf6112ec565b5b601f19601f8301169050602081019050919050565b600081519050919050565b600082825260208201905092915050565b600061120c82611229565b9050919050565b60008115159050919050565b6000819050919050565b600073ffffffffffffffffffffffffffffffffffffffff82169050919050565b82818337600083830152505050565b60005b8381101561127657808201518184015260208101905061125b565b83811115611285576000848401525b50505050565b600060028204905060018216806112a357607f821691505b602082108114156112b7576112b66112bd565b5b50919050565b7f4e487b7100000000000000000000000000000000000000000000000000000000600052602260045260246000fd5b7f4e487b7100000000000000000000000000000000000000000000000000000000600052604160045260246000fd5b6000601f19601f8301169050919050565b61133581611201565b811461134057600080fd5b50565b61134c8161121f565b811461135757600080fd5b5056fea26469706673582212203f64210fc08e129a7cb2eac76bcb870a75fec057fcf0050326b236b56de5adf464736f6c63430008000033",
  "linkReferences": {},
  "deployedLinkReferences": {}
}