{
  "_format": "hh-sol-artifact-1",
  "contractName": "DecentralizedDatabaseV1",
  "sourceName": "contracts/DecentralizedDatabaseV1.sol",
  "abi": [
    {
      "inputs": [],
      "stateMutability": "nonpayable",
      "type": "constructor"
    },
    {
      "anonymous": false,
      "inputs": [
        {
          "indexed": false,
          "internalType": "string",
          "name": "key",
          "type": "string"
        },
        {
          "indexed": false,
          "internalType": "string",
          "name": "value",
          "type": "string"
        }
      ],
      "name": "DataUpdated",
      "type": "event"
    },
    {
      "inputs": [
        {
          "internalType": "string",
          "name": "key",
          "type": "string"
        }
      ],
      "name": "deleteData",
      "outputs": [],
      "stateMutability": "nonpayable",
      "type": "function"
    },
    {
      "inputs": [
        {
          "internalType": "string",
          "name": "key",
          "type": "string"
        }
      ],
      "name": "getData",
      "outputs": [
        {
          "internalType": "string",
          "name": "",
          "type": "string"
        }
      ],
      "stateMutability": "view",
      "type": "function"
    },
    {
      "inputs": [],
      "name": "owner",
      "outputs": [
        {
          "internalType": "address",
          "name": "",
          "type": "address"
        }
      ],
      "stateMutability": "view",
      "type": "function"
    },
    {
      "inputs": [
        {
          "internalType": "string",
          "name": "key",
          "type": "string"
        },
        {
          "internalType": "string",
          "name": "value",
          "type": "string"
        }
      ],
      "name": "setData",
      "outputs": [],
      "stateMutability": "nonpayable",
      "type": "function"
    }
  ],
  "bytecode": "0x608060405234801561001057600080fd5b50336000806101000a81548173ffffffffffffffffffffffffffffffffffffffff021916908373ffffffffffffffffffffffffffffffffffffffff160217905550610b2d806100606000396000f3fe608060405234801561001057600080fd5b506004361061004c5760003560e01c80638ca3c553146100515780638da5cb5b1461006d5780639295cd1f1461008b578063ae55c888146100a7575b600080fd5b61006b60048036038101906100669190610472565b6100d7565b005b6100756101d8565b6040516100829190610534565b60405180910390f35b6100a560048036038101906100a0919061054f565b6101fc565b005b6100c160048036038101906100bc919061054f565b6102f3565b6040516100ce919061062c565b60405180910390f35b60008054906101000a900473ffffffffffffffffffffffffffffffffffffffff1673ffffffffffffffffffffffffffffffffffffffff163373ffffffffffffffffffffffffffffffffffffffff1614610165576040517f08c379a000000000000000000000000000000000000000000000000000000000815260040161015c9061069a565b60405180910390fd5b8181600186866040516101799291906106f9565b90815260200160405180910390209182610194929190610962565b507fee986145c636aca5c6c0b4ce0e9d371e77ab30b3e28fe5c3a8d977f05fc8cf24848484846040516101ca9493929190610a5f565b60405180910390a150505050565b60008054906101000a900473ffffffffffffffffffffffffffffffffffffffff1681565b60008054906101000a900473ffffffffffffffffffffffffffffffffffffffff1673ffffffffffffffffffffffffffffffffffffffff163373ffffffffffffffffffffffffffffffffffffffff161461028a576040517f08c379a00000000000000000000000000000000000000000000000000000000081526004016102819061069a565b60405180910390fd5b6001828260405161029c9291906106f9565b908152602001604051809103902060006102b691906103a6565b7fee986145c636aca5c6c0b4ce0e9d371e77ab30b3e28fe5c3a8d977f05fc8cf2482826040516102e7929190610ac0565b60405180910390a15050565b6060600183836040516103079291906106f9565b908152602001604051809103902080546103209061077b565b80601f016020809104026020016040519081016040528092919081815260200182805461034c9061077b565b80156103995780601f1061036e57610100808354040283529160200191610399565b820191906000526020600020905b81548152906001019060200180831161037c57829003601f168201915b5050505050905092915050565b5080546103b29061077b565b6000825580601f106103c457506103e3565b601f0160209004906000526020600020908101906103e291906103e6565b5b50565b5b808211156103ff5760008160009055506001016103e7565b5090565b600080fd5b600080fd5b600080fd5b600080fd5b600080fd5b60008083601f8401126104325761043161040d565b5b8235905067ffffffffffffffff81111561044f5761044e610412565b5b60208301915083600182028301111561046b5761046a610417565b5b9250929050565b6000806000806040858703121561048c5761048b610403565b5b600085013567ffffffffffffffff8111156104aa576104a9610408565b5b6104b68782880161041c565b9450945050602085013567ffffffffffffffff8111156104d9576104d8610408565b5b6104e58782880161041c565b925092505092959194509250565b600073ffffffffffffffffffffffffffffffffffffffff82169050919050565b600061051e826104f3565b9050919050565b61052e81610513565b82525050565b60006020820190506105496000830184610525565b92915050565b6000806020838503121561056657610565610403565b5b600083013567ffffffffffffffff81111561058457610583610408565b5b6105908582860161041c565b92509250509250929050565b600081519050919050565b600082825260208201905092915050565b60005b838110156105d65780820151818401526020810190506105bb565b60008484015250505050565b6000601f19601f8301169050919050565b60006105fe8261059c565b61060881856105a7565b93506106188185602086016105b8565b610621816105e2565b840191505092915050565b6000602082019050818103600083015261064681846105f3565b905092915050565b7f4e6f742074686520636f6e7472616374206f776e657200000000000000000000600082015250565b60006106846016836105a7565b915061068f8261064e565b602082019050919050565b600060208201905081810360008301526106b381610677565b9050919050565b600081905092915050565b82818337600083830152505050565b60006106e083856106ba565b93506106ed8385846106c5565b82840190509392505050565b60006107068284866106d4565b91508190509392505050565b600082905092915050565b7f4e487b7100000000000000000000000000000000000000000000000000000000600052604160045260246000fd5b7f4e487b7100000000000000000000000000000000000000000000000000000000600052602260045260246000fd5b6000600282049050600182168061079357607f821691505b6020821081036107a6576107a561074c565b5b50919050565b60008190508160005260206000209050919050565b60006020601f8301049050919050565b600082821b905092915050565b60006008830261080e7fffffffffffffffffffffffffffffffffffffffffffffffffffffffffffffffff826107d1565b61081886836107d1565b95508019841693508086168417925050509392505050565b6000819050919050565b6000819050919050565b600061085f61085a61085584610830565b61083a565b610830565b9050919050565b6000819050919050565b61087983610844565b61088d61088582610866565b8484546107de565b825550505050565b600090565b6108a2610895565b6108ad818484610870565b505050565b5b818110156108d1576108c660008261089a565b6001810190506108b3565b5050565b601f821115610916576108e7816107ac565b6108f0846107c1565b810160208510156108ff578190505b61091361090b856107c1565b8301826108b2565b50505b505050565b600082821c905092915050565b60006109396000198460080261091b565b1980831691505092915050565b60006109528383610928565b9150826002028217905092915050565b61096c8383610712565b67ffffffffffffffff8111156109855761098461071d565b5b61098f825461077b565b61099a8282856108d5565b6000601f8311600181146109c957600084156109b7578287013590505b6109c18582610946565b865550610a29565b601f1984166109d7866107ac565b60005b828110156109ff578489013582556001820191506020850194506020810190506109da565b86831015610a1c5784890135610a18601f891682610928565b8355505b6001600288020188555050505b50505050505050565b6000610a3e83856105a7565b9350610a4b8385846106c5565b610a54836105e2565b840190509392505050565b60006040820190508181036000830152610a7a818688610a32565b90508181036020830152610a8f818486610a32565b905095945050505050565b50565b6000610aaa6000836105a7565b9150610ab582610a9a565b600082019050919050565b60006040820190508181036000830152610adb818486610a32565b90508181036020830152610aee81610a9d565b9050939250505056fea264697066735822122042d485dbb9b88059925a8aefc8f705306c9d604cd07761acef4af298dda0536c64736f6c63430008180033",
  "linkReferences": {},
  "deployedLinkReferences": {}
}